:1000000019C03FC03EC08BC23CC03BC03AC021C2F9
:1000100038C037C036C035C034C054C232C031C019
:1000200030C02FC02EC02DC02CC02BC02AC029C06C
:1000300028C027C011241FBECFEFCDBFDFE3DEBF36
:100040008091400080934000811105C098ED21E02F
:1000500094BF209341008CBB1FE3A0E0BFE3E9EF16
:10006000FFE002C005900D92A430B107D9F72FE34D
:10007000A4E0BFE301C01D92A531B207E1F784D22D
:1000800010C6BECF809114088360809314088091BD
:10009000150880FFFCCF089592E090931408809398
:1000A00018088091150886FFFCCF809115088C7088
:1000B00039F4809115088295817091E0892708951F
:1000C00080E0089588E78093170880911508807C68
:1000D000E1F38091150883FF06C08091150880FF29
:1000E000FCCF80E008958091150884FF0AC08091BC
:1000F00014088360809314088091150880FFFCCF5A
:10010000F0CF81E00895DEDF80E4C6CFDBDF80E062
:10011000C3CFCF93DF93C82FD62FF8DF80EB8D0F9F
:10012000BBDF8C2F82958F708061B6DF8C2F8E7035
:100130008160B2DFDF91CF91A5CF1F93CF93DF9383
:10014000142FD22FE6DFDFDFC0E0C11721F08D2FA3
:10015000A3DFCF5FFACFDF91CF911F9193CFCF93E2
:10016000C0E020E040E86C2F80E0E7DFCF5FC430E4
:10017000C1F7CF910895CF93C82FC8DF8C2F8CDFA4
:10018000CF9180CFBC018091080485FD41C0809152
:10019000123F9091133F8093103F9093113F98ED41
:1001A00041E02091123F3091133FE091103FF091D8
:1001B000113F2E1B3F0B2617370720F080910804B4
:1001C00085FD28C02091123F3091133FE091103FF0
:1001D000F091113F2E1B3F0B293B3B4040F080919B
:1001E000053F882321F0109200041092053F2091D2
:1001F000123F3091133FE091103FF091113F2E1BC1
:100200003F0B2137374168F294BF40934100C9CF7B
:1002100080E0089581E008958F929F92AF92BF92FF
:10022000CF92DF92EF92FF920F931F93CF93DF93C2
:10023000882EC62F7A01922E060FD0E0C22ED12C26
:100240006C2F882D66DF5FDF1D2F5601AD0EB11CB0
:10025000812F90E08A159B056CF420910B3F22239F
:1002600011F010FD05C08E0D9F1DFC01808114DF73
:100270001F5FEECF07DFD90DCF5FC013E1CFDF9156
:10028000CF911F910F91FF90EF90DF90CF90BF9093
:10029000AF909F908F900895FF920F931F93CF93ED
:1002A000DF93D82F362FC42FC7FDC195CA3044F530
:1002B000803411F08C34E1F420E040E261E080E62B
:1002C0003CDF20E040E262E080E637DFEC2FEE0F1B
:1002D000FF0BEB51F0474081518102E020E261E0E9
:1002E0008D2F9ADFDF91CF911F910F91FF9008958D
:1002F00002E020E24AE65FE861E0830F8DDFE6CFAF
:100300001AE08C2F612F4CD4F82EE82FEE0FFF0B44
:10031000EB51F0474081518102E020E261E08D2FF6
:10032000830F7ADFEC2FF19EE0191124EE0FFF0B03
:10033000EB51F04740815181D1CFCF93C62F4091EF
:100340000A3F60E2A9DF4091093F60E28C2FCF9124
:10035000A3CF80910006882379F08DE18093060673
:1003600081E08093080680910B0680FFFCCF80918E
:10037000100690911106089589EF92E80895E0EA39
:10038000F0E081818D7F8183A0E0B6E012968C91B0
:1003900012978F7C806512968C9380E48083D9DFDE
:1003A000D8DF9C0150E040E064E27AE687E190E02B
:1003B00018D4C90108950F93CF93DF93E0DF853000
:1003C00020E1920710F084E090E1883B2BE0920757
:1003D00010F488EB9BE0B0E0A0E09C01AD01285B4D
:1003E0003B4041095109A5E7B0E045D42CE434E095
:1003F00040E050E018D4422FD22FC32F20EE63E00C
:100400008AE09BDE4D2F5C2F4531510510F044E111
:1004100050E0C42F20EA63E08AE08FDE8091080478
:1004200084FF07C001E028E04AEA5FE863E080E07B
:10043000F3DE8091080484FD07C001E028E04DED63
:100440005FE863E080E0E8DE8C2FDF91CF910F91D1
:1004500008951F920F920FB60F9211248F939F93BE
:1004600091E0909353018091083F8F5F8C3370F43B
:100470008093083F8091013F811101C088959F9131
:100480008F910F900FBE0F901F9018951092083FFC
:1004900080910B3F81119093013F8091093F8F5FC5
:1004A0008C3318F48093093FE5CF1092093F809177
:1004B0000A3F8F5F883118F480930A3FDBCF109298
:1004C0000A3FD8CF1F920F920FB60F9211242F938D
:1004D0008F939F9381E08093460A8091123F909181
:1004E000133F01968093123F9093133F8091003FFA
:1004F000882369F08091123F9091133F813D97408E
:1005000030F01092003F1092053F109200049F912E
:100510008F912F910F900FBE0F901F9018951F92E3
:100520000F920FB60F9211248F938091090484FFCC
:100530000AC08091080484FD06C081E08093003FDA
:1005400088E08093000480911504887F80931504CF
:1005500080E383B981E08093013F8093023F109252
:100560000B3F1092123F1092133F1092103F1092C7
:10057000113F809150008E7F809350008F910F909B
:100580000FBE0F901F901895CF93DF93CDB7DEB7B6
:100590002597CDBFDEBF28ED33E024BF3093610047
:1005A000E0E0F6E081E582838DE0858380E283836D
:1005B00081E080839FE0909302028093030A9EEF84
:1005C0009093260A9093270A99E09093000A7894D2
:1005D00098E090930004309320048093400490931B
:1005E0001404909315049091140491609093140452
:1005F00024BF80937C00809141018111FCCF80E871
:100600008093400182E080934701809151018111E4
:10061000FCCF81E78093500181E080935201809369
:10062000450A80ED97E080934C0A90934D0A83E051
:100630008093400A80915000897F846080935000AD
:1006400078944090A68C5090A78C6090A88C709065
:10065000A98C9CE3292E312CFF24F394EE24E394FF
:100660008091023F882309F444C0809144048E7F26
:10067000809344048091440480FDFCCF8091440425
:1006800081608093440484E690E07CDD22E0209346
:10069000220480913104886080933104F092220416
:1006A0008091300488608093300410921608F09294
:1006B0001308F092150802EB1FE8F80181918F01F1
:1006C0005ADD2DEC3FE820173107B9F748DD60E02F
:1006D00080E433DE70DE1092143F10920D3F1092D2
:1006E000023F8091123F9091133F8093103F90936F
:1006F000113F00910E3F10910F3F01151105D1F1EF
:100700008091083F9091043F8917A1F18093043FA5
:100710009801AEE7B0E0A3D22091063F3091073FA9
:1007200050E040E080D2D22E20E042E060E08D2D0B
:1007300004DD23E04D2D60E080E0FFDC0150110975
:1007400000930E3F10930F3F012B41F408DD38E07A
:10075000309300048091080485FDFCCF8091000453
:10076000882321F01092053F1092000424DE60E0FF
:1007700080E4E3DD8CE291E005DD8D83882309F4DC
:100780009DC08091143F811104C215DE882309F4B5
:1007900000C249825A826B827C82E1DC85EDC82EE0
:1007A0008FE8D82ECE0101965C014C01F6014191F3
:1007B00051916F0102E020E161E0F50181915F015B
:1007C0002BDDFDEDCF16FFE8DF0681F710E08AEFA5
:1007D00090E0D8DC811103C02D81111117C020E0F9
:1007E0004FE760E080E0A9DCF401E10FF11D17FDA7
:1007F000FA95808101E028E04DEC5FE860E08C5FD5
:100800000BDD1F5F21E015300CF020E08091123FDE
:100810009091133F4091103F5091113F841B950BD5
:10082000813D974008F446C08091123F9091133F5C
:100830008093103F9093113F123009F4CEC00CF01A
:10084000AFC01130C9F58091123F9091133F2091B4
:10085000103F3091113F821B930B803D974060F514
:100860008AEF90E08FDC811103C0FD81FF2301F14D
:100870008091123F9091133F8093103F9093113FCE
:100880008091053F8F5F8093053F8091053F8430C5
:1008900010F01092053F8091053F813009F48FC020
:1008A00008F48AC0823009F48EC0833009F491C004
:1008B0001D82C9CF21118BCFE092023F8091123F60
:1008C0009091133F2091103F3091113F821B930B69
:1008D000813A9F4008F4C4CE8091123F9091133F1B
:1008E0008093103F9093113F81E845DC85E043DC25
:1008F000E092143F80910E3F90910F3F892B09F0B9
:10090000AFCE2DDC8091080484FD07C001E028E013
:100910004DED5FE863E080E07FDC8091080484FFB8
:1009200023C080910D3F803FF8F429DD84349C4042
:1009300010F410920C3F80910C3F8823A9F0809115
:100940000D3F803F38F490910B3F992319F08F5F52
:1009500080930D3F80910B3F811103C081E0809314
:100960000B3F68E08CE4E9DC8091080484FF0AC056
:1009700080910C3F882321F080910D3F803F10F043
:100980008EEAF9DB1092013F80911504816080931B
:1009900015048091500081608093500088955CCE52
:1009A000133009F465C0143009F086CF80910C3FF4
:1009B0008F2580930C3F80CF1092000479CF28E0E0
:1009C0002093000475CF809100048460809300041C
:1009D0006FCF809100048260F9CFC1DB40E060E21C
:1009E00080E05ADC10920E3F10920F3F8091080475
:1009F00085FD23C080910E3F90910F3F2091123FC3
:100A00003091133F2093103F3093113F845D9E4FF0
:100A1000893037E0930738F580930E3F90930F3F6E
:100A200080910E3F90910F3FB101C7D0462F60E2F9
:100A300080E032DC8CE291E0A5DB8091123F909166
:100A4000133F2091103F3091113F821B930B813D4A
:100A5000974060F280910E3F90910F3F8093063F48
:100A60009093073F29CF10920E3F10920F3FD8CF9F
:100A700076DBE0920B3F01E028E04DEC5FE860E0C0
:100A800088E6CADB18E6D12C40910A3F62E18AE58C
:100A900003DC4091093F62E18EE2FEDB4091083FBA
:100AA00062E180E0F9DB8091123F9091133F209149
:100AB000103F3091113F821B930B8B3F9105F8F053
:100AC0008091080485FD1BC08091123F9091133FD7
:100AD0008093103F9093113FF1E0DF16E1F122E0A7
:100AE000D21609F447C080910A3F8F5F883180F5A4
:100AF00080930A3F40910A3F62E18AE5CDDB809115
:100B0000123F9091133F2091103F3091113F821B73
:100B1000930B853C994038F28091123F9091133F9E
:100B20008093103F9093113F20E04FE760E080E01A
:100B300004DB1C5201E028E04DEC5FE860E0812F0F
:100B40006BDBD394143E09F09FCF10920B3FB4CED1
:100B500010920A3FCFCF8091093F8F5F8C3338F4DA
:100B60008093093F4091093F62E18EE2C7CF109226
:100B7000093FF8CF8091083F8F5F8C3338F4809322
:100B8000083F4091083F62E180E0B8CF1092083FF3
:100B9000F8CF81E8F0DA8FE3EEDA1092143F8ECED0
:100BA00087FB082E062687FD819567FD61956DD030
:100BB0000EF4919507FC81950895AA1BBB1B51E18A
:100BC00007C0AA1FBB1FA617B70710F0A61BB70BBD
:100BD000881F991F5A95A9F780959095BC01CD0162
:100BE0000895A1E21A2EAA1BBB1BFD010DC0AA1F6E
:100BF000BB1FEE1FFF1FA217B307E407F50720F086
:100C0000A21BB30BE40BF50B661F771F881F991F00
:100C10001A9469F760957095809590959B01AC0149
:100C2000BD01CF010895052E97FB16F400940FD057
:100C300057FD05D0D6DF07FC02D046F408C050951A
:100C40004095309521953F4F4F4F5F4F08959095B8
:100C50008095709561957F4F8F4F9F4F0895A29F0C
:100C6000B001B39FC001A39F01D0B29F700D811D41
:100C70001124911D0895F3DFA59F900DB49F900D51
:100C8000A49F800D911D11240895991B79E004C043
:100C9000991F961708F0961B881F7A95C9F78095BB
:060CA0000895F894FFCF57
:100CA6006446280AE08080FE46565646FE02E2A2C8
:100CB600A2E202FE1F0707FFF7E6F7C4FF808A8A53
:100CC6008A8680FFF0F81C8E87838383830303075D
:100CD6000E1CF8F00F1F3871E1C1C1C1C3C7C6E0D1
:100CE60070381F0FFE4C8C0C0C1830A020B058AC7E
:100CF6005CAC4CFE7F35323130190C04050C1932D0
:100D0600353A357F00808018D8E0F0F6F6F0E0D866
:100D160018808000000101181B070F6F6F0F071B5B
:100D260018010100000000000000000000000000A3
:100D36000000FCFEFF0F0707070707070707070F57
:100D4600FFFEFC00002060E0E0E0E0E0E0E0E0E044
:100D5600E0F0FFFFFFF0E0E0E0E0E0E0E0E0E0F000
:100D6600FF7F3F0000FCFEFF0F0707070707070787
:100D760007070FFFFFFF0F07070707070707070FFD
:100D8600FFFEFC00003F7FFFF0E0E0E0E0E0E0E097
:100D9600E0E0F0FFFFFFF0E0E0E0E0E0E0E0E0F0C0
:100DA600FF7F3F0000000000000000000000000080
:100DB600000000000000000000000000000000002D
:100DC600FCFEFF00002060E0E0E0E0E0E0E0E0E0C4
:100DD600E0E0E0E0E0E0E0E0E0E0E0E0E0E0E0F0FD
:100DE600FF7F3F0000FCFE0F0707070707070707FF
:100DF600070FFFFFFF0F0707070707070707070785
:100E060007030100003F7FF0E0E0E0E0E0E0E0E023
:100E1600E0F0FF7F3F00000000000000000000003F
:100E26000000000000FCFEFF0000000000000000C3
:100E3600000000FCFEFF0F07070707070707070F5D
:100E4600FFFEFC00003F7FFFF0E0E0E0E0E0E0E0D6
:100E5600E0E0F0FF7F3F000000000000000000001F
:100E6600FF7F3F00000000000000000000000000BF
:100E76000000FCFEFF0F070707070707070707071E
:100E860007060400002060E0E0E0E0E0E0E0E0E0EB
:100E9600E0E0FFFFFFF0E0E0E0E0E0E0E0E0E0E0DF
:100EA600E060200000FCFEFF0000000000000000E3
:100EB600000000C0C0C000000000000000000000EC
:100EC600FFFEFC00003F7FFFF0E0E0E0E0E0E0E056
:100ED600E0E0F0FFFFFFF0E0E0E0E0E0E0E0E0F07F
:100EE600FF7F3F0000FCFEFF0F0707070707070706
:100EF60007070FFFFEFC00000000000000000000D6
:100F0600FFFEFC00003F7FFF000000000000000025
:100F16000000003F7FFFF0E0E0E0E0E0E0E0E0F02E
:100F2600FF7F3F00000000000000000000000000FE
:100F360000000000000000000000000000000000AB
:100F460000000000002060E0E0E0E0E0E0E0E0E03B
:100F5600E0E0E0E0E0E0E0E0E0E0E0E0E0E0E0E08B
:100F6600E060200000FCFEFF0F07070707070707E2
:100F76000707070707070707070707070707070FF3
:100F8600FFFEFC00003F7FFFF0E0E0E0E0E0E0E095
:100F9600E0E0E0E0E0E0E0E0E0E0E0E0E0E0E0F03B
:100FA600FF7F3F0000F090909090F0602000B7C85F
:100FB600001040813FA1A6A81FA4D300D5F0D922D6
:100FC600DA02DB208D14AF0003070F1F0F07030A99
:100FD6008DEA8CCA8CAA8C183870E0FC3870E06AEE
:100FE6008F2A8FEA8EAA8E6A8E2A8EEA8DAA8D6A3B
:030FF6008D2A8DB4
:040FF90001010100F1
:00000001FF
