:1000000019C03FC03EC0C3C23CC03BC03AC065C27D
:100010009DC237C036C035C034C033C032C031C0D5
:1000200030C02FC02EC02DC02CC02BC02AC029C06C
:1000300028C027C011241FBECFEFCDBFDFE3DEBF36
:100040008091400080934000811105C098ED21E02F
:1000500094BF209341008CBB1FE3A0E0BFE3E3EA21
:10006000FFE002C005900D92A430B107D9F72FE34D
:10007000A4E0BFE301C01D92A631B207E1F7B4D2FC
:10008000DCC5BECF809114088360809314088091F2
:10009000150880FFFCCF089592E090931408809398
:1000A00018088091150886FFFCCF809115088C7088
:1000B00039F4809115088295817091E0892708951F
:1000C00080E0089588E78093170880911508807C68
:1000D000E1F38091150883FF06C08091150880FF29
:1000E000FCCF80E008958091150884FF0AC08091BC
:1000F00014088360809314088091150880FFFCCF5A
:10010000F0CF81E00895DEDF80E4C6CFDBDF80E062
:10011000C3CFCF93DF93C82FD62FF8DF80EB8D0F9F
:10012000BBDF8C2F82958F708061B6DF8C2F8E7035
:100130008160B2DFDF91CF91A5CF1F93CF93DF9383
:10014000142FD22FE6DFDFDFC0E0C11721F08D2FA3
:10015000A3DFCF5FFACFDF91CF911F9193CFCF93E2
:10016000C0E020E040E86C2F80E0E7DFCF5FC430E4
:10017000C1F7CF910895CF93C82FC8DF8C2F8CDFA4
:10018000CF9180CF8091080486FD17C02091133F46
:100190003091143F2093113F3093123F8091133FD1
:1001A0009091143F821B930B8A3F9105B8F3809185
:1001B000080486FFF3CF81E0089580E008957F92E0
:1001C0008F929F92AF92BF92CF92DF92EF92FF9267
:1001D0000F931F93CF93DF93782EC62F6A01F22ED1
:1001E000060F10E0A22EB12C6C2F872D92DF8BDF33
:1001F000D12F4501810E911C8D2F90E08815990516
:100200007CF420910C3F222311F0D0FF07C08C0D0D
:100210009D1DFC018081E11080953EDFDF5FECCF0A
:1002200031DF1F0DCF5FC013DFCFDF91CF911F9163
:100230000F91FF90EF90DF90CF90BF90AF909F9085
:100240008F907F900895EF92FF920F931F93CF931B
:10025000DF93D82F362FC42FC7FDC195CA305CF568
:100260008F7E8034F1F420E040E261E080E665DFDB
:1002700020E040E262E080E660DFEC2FEE0FFF0B53
:10028000E157F04740815181E12C02E020E261E03A
:100290008D2F95DFDF91CF911F910F91FF90EF9000
:1002A0000895E12C02E020E242E05FE861E08D2F5A
:1002B000830F85DFE2CF8AE0F82E8C2F6F2D3CD4A0
:1002C000182FE82FEE0FFF0BE157F04740815181C7
:1002D000E12C02E020E261E08D2F830F70DF1F9D93
:1002E000102D1124EC2FE1508C2F8E1B8117DCF385
:1002F000EE0FFF0BC5CFCF93C62F40910A3F60E2B0
:10030000A2DF40910B3F60E28C2FCF919CCF809178
:100310000006882379F08DE18093060681E08093C2
:10032000080680910B0680FFFCCF8091100690910B
:100330001106089589EF92E8089590E0FC01E757CF
:10034000F04720812F3F99F0FC01ED57F047E08105
:10035000E295EE0FF0E0F460228383589047DC01D1
:100360008C918061E80FF11D808188608083089501
:10037000E0EAF0E081818D7F8183A0E0B6E0129613
:100380008C9112978F7C806512968C9380E4808389
:10039000BEDFBDDF9C0150E040E064E27AE687E129
:1003A00090E0EBD3C9010895EF920F93E1DF853020
:1003B00020E1920710F084E090E1843E2CE0920767
:1003C00010F484EE9CE0B0E0A0E09C01AD01245E5E
:1003D0003C4041095109A5E7B0E019D420E233E0DF
:1003E00040E050E0ECD3422F20EE63E08AE0A5DE4F
:1003F00020EA4EE163E08AE0A0DE8091080487FFF6
:1004000008C0E12C01E028E042E45FE863E080E01E
:10041000D6DE8091080487FD08C0E12C01E028E0C9
:1004200045E75FE863E080E0CADE0F91EF90089552
:10043000CF93DF9380910404877F8093040480919D
:10044000040483FDFCCF809104048860809304043D
:100450008091040483FFFCCF82E06FDF83E06DDFD7
:1004600084E08093160881E0809313088093150838
:10047000CAE4DFE889917FDE8FE8C536D807D1F777
:100480006EDE88ED90E084BF9093000160E080E430
:1004900032DF8ADF1092153F80EA9FE08093013FB0
:1004A0009093023F10920E3F6DDE1092033FDF915A
:1004B000CF91089581E08093043F8091080486FFE6
:1004C00004C08091080487FDF8CF88ED9AE084BFCE
:1004D000909300011092043FABCF1F920F920FB682
:1004E0000F9211248F939F9391E0909353018091E9
:1004F000093F8F5F8C3370F48093093F8091003FF8
:10050000811101C088959F918F910F900FBE0F9020
:100510001F9018951092093F80910C3F8111909384
:10052000003F80910B3F8F5F8C3318F480930B3F1B
:10053000E5CF10920B3F80910A3F8F5F883118F40E
:1005400080930A3FDBCF10920A3FD8CF1F920F92C1
:100550000FB60F9211248F939F9381E080930B0A23
:100560008091043F882319F088E0809307048091EC
:10057000133F9091143F01968093133F9093143F43
:100580009F918F910F900FBE0F901F9018951F9203
:100590000F920FB60F9211248F939F93EF93FF93B7
:1005A000E0E0F4E08689887F868B8789887F878B67
:1005B00080EC83B981E08093003F8093033F1092E9
:1005C0000C3FE0E5F0E080818E7F808388ED9AE04B
:1005D00084BF90930001FF91EF919F918F910F90B5
:1005E0000FBE0F901F901895CF93DF9300D000D0CF
:1005F000CDB7DEB781E098ED94BF8093610092E5BE
:10060000909302069AE09093050690E29093030679
:1006100080930006809302028093030A9EEF9093DA
:10062000260A9093270A9BE09093000A78942EE084
:100630002093000428E0209316042093170480934D
:100640000A0A1092010A8091090A8E7F8093090A92
:100650002AE530E02093260A3093270A9093000A77
:10066000809141018111FCCF81EA80934001109279
:10067000470181E08093520181E780935001789493
:1006800080915000897F84608093500020903E8C40
:1006900030903F8C4090408C5090418CAA24A39481
:1006A000FF24F39420910F3F3091103F2115310525
:1006B000D9F18091093F9091063F8917A9F1809364
:1006C000063FAEE7B0E097D22091073F3091083F58
:1006D00050E040E074D2122F20E042E060E0812F31
:1006E0002CDD23E0412F60E080E027DD5DDE80919E
:1006F0000B3F9091053F981306C020910F3F30911A
:10070000103F232B29F48093053F60E080E4F3DD64
:1007100080910F3F9091103F019780930F3F9093EE
:10072000103F892B09F4C6DE8091033F811180DEE2
:1007300029DDB82E882359F08091153F882309F4CC
:1007400090C081E818DD8FE316DD1092153F80918F
:10075000133F9091143F2091113F3091123F821B23
:10076000930B2091013F3091023F2817390708F081
:1007700099CF8091133F9091143F8093113F9093B4
:10078000123F81E8F8DC85E0F6DCA092153F80910D
:100790000F3F9091103F892B09F084CF8091033F48
:1007A000811180CFDCDC8091080487FD0BC0809133
:1007B000033F811107C0E12C01E028E045E75FE835
:1007C00063E0FDDC8091080487FF2AC080910E3F22
:1007D000803F30F5CDDD8C3A9D4010F410920D3FF6
:1007E00080910D3F8823E1F080910E3F803F38F4E7
:1007F00090910C3F992319F08F5F80930E3F809169
:100800000C3F811106C0A0920C3F1092013F109244
:10081000023F80910B3F80FD8CC160E180E56BDD84
:100820008091080487FF0AC080910D3F882321F042
:1008300080910E3F803F10F08EEA9DDC1092003FC9
:100840008091160483608093160480911704816060
:1008500080931704809150008160809350008895A8
:1008600021CF29823A824B825C8279DC4DE6642E6C
:100870004FE8742ECE0101966C0110E04C01F3019B
:10088000419151913F01F60181916F01EE24E39472
:100890001111E12C02E020E161E091DC1F5F1430D6
:1008A00071F770DC10E06EDCD82E882309F44AC0A2
:1008B000812F012E000C990BFC01EE0FFF1FE35955
:1008C000F04740815181880D991DE12C02E020E123
:1008D00061E0FC01808173DC1F5F1430ACF5812F77
:1008E000012E000C990BFC01EE0FFF1FE359F0479E
:1008F00040815181880D991DEE24E39420E161E04F
:10090000FC0180815CDC8091133F9091143F209129
:10091000113F3091123F821B930B813D974068F04D
:100920008091133F9091143F8093113F9093123F19
:100930001130D1F05CF41123A9F0D110B4CFF092B2
:10094000033F05CFDB2CDFCFD12CDDCF123009F4F4
:100950005DC0133091F780910D3FF1E08F278093B8
:100960000D3FEDCFA7DDEBCFFADBE12C01E028E076
:1009700045E65FE860E08CE122DC40E060E280E098
:1009800062DC10920F3F1092103F8091080486FDA8
:1009900022C080910F3F9091103F2091133F3091E2
:1009A000143F2093113F3093123F845D9E4F893056
:1009B00027E0920730F580930F3F9093103F80918E
:1009C0000F3F9091103F6CE370E0C3D0462F60E280
:1009D00080E039DCD7DB8091133F9091143F209168
:1009E000113F3091123F821B930B813D974068F27B
:1009F00080910F3F9091103F8093073F9093083F65
:100A00009ECF10920F3F1092103FD9CFA8DBF092EB
:100A10000C3FE12C01E028E045E65FE860E088E675
:100A2000CEDB18E6D12C40910A3F62E18AE50BDC6F
:100A300040910B3F62E18EE206DC4091093F62E1AA
:100A400080E001DC8091133F9091143F2091113F91
:100A50003091123F821B930B813F9105F8F08091FA
:100A6000080486FD1BC08091133F9091143F809332
:100A7000113F9093123FF1E0DF16E9F122E0D21628
:100A800009F448C080910A3F8F5F883188F58093D0
:100A90000A3F40910A3F62E18AE5D5DB8091133F2E
:100AA0009091143F2091113F3091123F821B930B84
:100AB000853C994038F28091133F9091143F809388
:100AC000113F9093123F20E04FE760E080E035DB7C
:100AD0001C52E12C01E028E045E65FE860E0812F50
:100AE0006EDBD394143E09F09ECF10920C3F27CFBB
:100AF00010920A3FCECF80910B3F8F5F8C3338F43A
:100B000080930B3F40910B3F62E18EE2C6CF109283
:100B10000B3FF8CF8091093F8F5F8C3338F480937F
:100B2000093F4091093F62E180E0B7CF1092093F51
:100B3000F8CF60E080E473CE87FB082E062687FDA1
:100B4000819567FD61956DD00EF4919507FC8195B7
:100B50000895AA1BBB1B51E107C0AA1FBB1FA61704
:100B6000B70710F0A61BB70B881F991F5A95A9F756
:100B700080959095BC01CD010895A1E21A2EAA1B83
:100B8000BB1BFD010DC0AA1FBB1FEE1FFF1FA2173D
:100B9000B307E407F50720F0A21BB30BE40BF50B3A
:100BA000661F771F881F991F1A9469F760957095C3
:100BB000809590959B01AC01BD01CF010895052E54
:100BC00097FB16F400940FD057FD05D0D6DF07FC35
:100BD00002D046F408C050954095309521953F4F7E
:100BE0004F4F5F4F089590958095709561957F4F19
:100BF0008F4F9F4F0895A29FB001B39FC001A39F45
:100C000001D0B29F700D811D1124911D0895F3DF55
:100C1000A59F900DB49F900DA49F800D911D112450
:100C20000895991B79E004C0991F961708F0961B48
:0E0C3000881F7A95C9F780950895F894FFCF34
:100C3E006446280AE08080FE46565646FE02E2A230
:100C4E00A2E202FE1F0707FFF7E6F7C4FF808A8ABB
:100C5E008A8680FFF0F81C8E8783838383030307C5
:100C6E000E1CF8F00F1F3871E1C1C1C1C3C7C6E039
:100C7E0070381F0FFE4C8C0C0C1830A020B058ACE6
:100C8E005CAC4CFE7F35323130190C04050C193238
:100C9E00353A357F00808018D8E0F0F6F6F0E0D8CF
:100CAE0018808000000101181B070F6F6F0F071BC4
:100CBE00180101000000000000000000000000000C
:100CCE000000FCFEFF0F0707070707070707070FC0
:100CDE00FFFEFC00002060E0E0E0E0E0E0E0E0E0AD
:100CEE00E0F0FFFFFFF0E0E0E0E0E0E0E0E0E0F069
:100CFE00FF7F3F0000FCFEFF0F07070707070707F0
:100D0E0007070FFFFFFF0F07070707070707070F65
:100D1E00FFFEFC00003F7FFFF0E0E0E0E0E0E0E0FF
:100D2E00E0E0F0FFFFFFF0E0E0E0E0E0E0E0E0F028
:100D3E00FF7F3F00000000000000000000000000E8
:100D4E000000000000000000000000000000000095
:100D5E00FCFEFF00002060E0E0E0E0E0E0E0E0E02C
:100D6E00E0E0E0E0E0E0E0E0E0E0E0E0E0E0E0F065
:100D7E00FF7F3F0000FCFE0F070707070707070767
:100D8E00070FFFFFFF0F07070707070707070707ED
:100D9E0007030100003F7FF0E0E0E0E0E0E0E0E08C
:100DAE00E0F0FF7F3F0000000000000000000000A8
:100DBE000000000000FCFEFF00000000000000002C
:100DCE00000000FCFEFF0F07070707070707070FC6
:100DDE00FFFEFC00003F7FFFF0E0E0E0E0E0E0E03F
:100DEE00E0E0F0FF7F3F0000000000000000000088
:100DFE00FF7F3F0000000000000000000000000028
:100E0E000000FCFEFF0F0707070707070707070786
:100E1E0007060400002060E0E0E0E0E0E0E0E0E053
:100E2E00E0E0FFFFFFF0E0E0E0E0E0E0E0E0E0E047
:100E3E00E060200000FCFEFF00000000000000004B
:100E4E00000000C0C0C00000000000000000000054
:100E5E00FFFEFC00003F7FFFF0E0E0E0E0E0E0E0BE
:100E6E00E0E0F0FFFFFFF0E0E0E0E0E0E0E0E0F0E7
:100E7E00FF7F3F0000FCFEFF0F070707070707076E
:100E8E0007070FFFFEFC000000000000000000003E
:100E9E00FFFEFC00003F7FFF00000000000000008E
:100EAE000000003F7FFFF0E0E0E0E0E0E0E0E0F097
:100EBE00FF7F3F0000000000000000000000000067
:100ECE000000000000000000000000000000000014
:100EDE0000000000002060E0E0E0E0E0E0E0E0E0A4
:100EEE00E0E0E0E0E0E0E0E0E0E0E0E0E0E0E0E0F4
:100EFE00E060200000FCFEFF0F070707070707074B
:100F0E000707070707070707070707070707070F5B
:100F1E00FFFEFC00003F7FFFF0E0E0E0E0E0E0E0FD
:100F2E00E0E0E0E0E0E0E0E0E0E0E0E0E0E0E0F0A3
:100F3E00FF7F3F0000F090909090F0602000B7C8C7
:100F4E00001040813FA1A6A81FA4D300D5F0D9223E
:100F5E00DA02DB208D14AF0003070F1F0F0703A269
:100F6E008C828C628C428C183870E0FC3870E006F3
:100F7E000701020300000000000000408002040888
:100F8E0001028FC28E828E428E028EC28D828D4261
:050F9E008D028DC28CE4
:040FA30001A00F0199
:00000001FF
